:020000040800F2
:1000000000200020E12200084505000847050008FF
:1000100000000000000000000000000000000000E0
:10002000000000000000000000000000490500087A
:1000300000000000000000004B0500084D0500080E
:10004000612300080000000061230008612300080C
:100050006123000861230008612300086123000870
:100060000000000061230008612300085505000816
:1000700061230008612300080000000061230008DC
:100080000000000000000000000000000000000070
:100090006123000800000000000000006123000848
:1000A00000000000612300080000000000000000C4
:1000B0006D0500086123000800000000000000003A
:1000C000002243088B4274D303098B425FD3030A97
:1000D0008B4244D3030B8B4228D3030C8B420DD3AA
:1000E000FF22090212BA030C8B4202D31212090238
:1000F00065D0030B8B4219D300E0090AC30B8B4276
:1001000001D3CB03C01A5241830B8B4201D38B0323
:10011000C01A5241430B8B4201D34B03C01A5241C8
:10012000030B8B4201D30B03C01A5241C30A8B420B
:1001300001D3CB02C01A5241830A8B4201D38B02F6
:10014000C01A5241430A8B4201D34B02C01A52419A
:10015000030A8B4201D30B02C01A5241CDD2C3090C
:100160008B4201D3CB01C01A524183098B4201D388
:100170008B01C01A524143098B4201D34B01C01A73
:10018000524103098B4201D30B01C01A5241C308EB
:100190008B4201D3CB00C01A524183088B4201D35A
:1001A0008B00C01A524143088B4201D34B00C01A46
:1001B0005241411A00D20146524110467047FFE7B2
:1001C00001B5002000F006F802BDC0460029F7D0B6
:1001D00076E770477047C046002B11D1002A0FD137
:1001E000002900D1002802D00021C943080007B42B
:1001F000024802A14018029003BDC046D9FFFFFF8C
:1002000003B4684601B5029802F0DAF8019B9E46F5
:1002100002B00CBC7047C04610B5002903D100F0F5
:1002200007F8203002E0080000F002F810BDC046D8
:100230001C2101231B04984201D3000C10391B0A16
:10024000984201D3000A08391B09984201D30009DA
:10025000043902A2105C40187047C0460403020231
:100260000101010100000000000000000448054BEE
:1002700010B5834203D0044B002B00D0984710BD2B
:100280000C0000200C000020000000000648074978
:10029000091A8B10C90FC91810B5491003D0044BA7
:1002A000002B00D0984710BD0C0000200C0000204F
:1002B0000000000010B5074C2378002B09D1FFF790
:1002C000D5FF054B002B02D0044800E000BF0123FE
:1002D000237010BD0C000020000000006C250008F9
:1002E000054B10B5002B03D00449054800E000BFC2
:1002F000FFF7CCFF10BDC04600000000100000203A
:100300006C25000803008218934200D170471970D1
:100310000133F9E770B500260C4C0D4D641BA41099
:10032000A64209D1002602F021F90A4C0A4D641BAD
:10033000A410A64205D170BDB300EB589847013612
:10034000EEE7B300EB5898470136F2E7F8250008CE
:10035000F8250008FC250008F825000882B0054AA9
:10036000116B012319431163126B13400193019B1D
:1003700002B070470010024082B0094BD96A0122D6
:100380001143D962D96A0A400092009AD96A0222BE
:100390001143D962DB6A1A400192019B02B0704797
:1003A0000010024010B5002200210B2000F008FAD6
:1003B0000B2000F009FA002200211C2000F000FAB6
:1003C0001C2000F001FA10BD72B6FEE700B599B02E
:1003D000342200210BA8FFF795FF1422002106A864
:1003E000FFF790FF182200216846FFF78BFF1A499C
:1003F0000A681A4B1A4080231B0113430B60022327
:100400000B93013B0E930F330F93002314930BA810
:1004100000F048FC002818D10F2306930E3B0793E9
:100420000023089309930A93002106A800F0C8FE50
:1004300000280CD10223009300230293684600F0A9
:10044000D1FF002805D119B000BDFFF7BDFFFFF7B0
:10045000BBFFFFF7B9FFC04600700040FFE7FFFF9A
:1004600010B500F03BF9FFF7B1FFFFF785FFFFF78D
:1004700075FF00F009F800F083F8FFF793FF01F033
:1004800011FF01F013FFFCE710B50F480F4B03609D
:1004900082235B0043600023836080221201C260DC
:1004A0008022D2028261C3611033436280239B01A8
:1004B00083620723C36201F061F8002800D110BDF8
:1004C000FFF782FFFBE7C046280000200030014014
:1004D00010B586B004001422002101A8FFF712FF16
:1004E00022680F4B9A4201D006B010BD0D4B596BDC
:1004F000802252010A435A63D96A01221143D96208
:10050000DB6A1A400092009BF0230193EE3B0293BA
:1005100001330493A02001A9C00500F0ADFAE3E780
:100520000030014000100240054B5A6B01210A4384
:100530005A63996B802252050A439A637047C046FA
:1005400000100240FEE7FEE77047704710B500F06C
:10055000D9F810BD10B5034800F030FA024800F099
:100560002DFA10BD80000020C800002010B5024800
:1005700001F082F910BDC046100100207047000054
:1005800010B50C480C4B0360E1235B024360002371
:100590008360C36003610C2242618361C3610362B3
:1005A000436201F06DFD002800D110BDFFF70CFF84
:1005B000FBE7C046100100200044004010B586B0A3
:1005C00004001422002101A8FFF79CFE2268284B9A
:1005D0009A4201D006B010BD264B996B8022920240
:1005E0000A439A63D96A02221143D962DB6A134033
:1005F0000093009BC02301930292BD3B049301A989
:100600001D4800F039FA1D481D4B03600423436068
:1006100000238360C3608022026143618361C36100
:1006200080235B01036200F0F7F8002819D1134B17
:1006300023679C621348144B0360042343600C330C
:1006400083600023C3608022026143618361C361D0
:10065000036200F0E1F8002806D10A4BE3669C62D1
:10066000B8E7FFF7B1FEE2E7FFF7AEFEF5E7C046F9
:10067000004400400010024000040050C800002068
:1006800058000240800000204400024010B50400E1
:100690000F4B1978FA208000FFF712FD01000D4B77
:1006A0001868FFF70DFD00F09BF800280DD1032C12
:1006B00001D901200AE0013000222100404200F06F
:1006C0007FF8054B1C60002000E0012010BDC046F3
:1006D00004000020000000200800002010B5084A97
:1006E000136840210B4313600320FFF7CFFF041E64
:1006F00002D00124200010BDFFF716FFFAE7C04624
:1007000000200240034A1168034B1B785B181360FA
:100710007047C0469401002004000020014B186877
:100720007047C0469401002070B5002811DB830893
:10073000134DC0339B005C5903221040C000FC32B3
:1007400016008640B44389010A40824022435A5130
:1007500070BD0F230340083B9B0806339B00094AEA
:10076000944663445C6803221040C000FC321500CC
:100770008540AC4389010A40824022435A60E7E742
:1007800000E100E000ED00E0013880235B049842C6
:100790000FD2094A50600948036A1B021B0AC02194
:1007A00009060B43036200239360073313600020A4
:1007B00070470120FCE7C04610E000E000ED00E0DB
:1007C00010B5FFF7B1FF10BD002805DB1F22024066
:1007D00001239340014A13607047C04600E100E0E6
:1007E00010B5FFF7D1FF10BD70B5446C1C25254036
:1007F000066C0124AC407460046863608368102B4D
:1008000004D0036899600368DA6070BD03689A6079
:100810000368D960F9E7000070B5041E3DD0056893
:100820001F4BE8181421FFF74BFC800060641D4B40
:10083000236425230222E2542A681B4B1A40A36832
:10084000E1680B4321690B4361690B43A1690B43C9
:10085000E1690B43216A0B4313432B60A268802399
:10086000DB019A4210D0114B1968656C1C221540AF
:100870000F20A8408143196019686068656C2A40A0
:10088000904002000A431A600023E36325220121FD
:10089000A154013AA354002070BD0120FCE7C046DA
:1008A000F8FFFDBF000002400F80FFFFA8000240DC
:1008B00070B504002420205C012832D024200125BA
:1008C00025540130205C012804D024230022E25466
:1008D000022070BD2430013525540020E0632568D6
:1008E00028680126B04328602000FFF77DFF236BB6
:1008F000002B0BD0226813680E210B431360226873
:10090000136801210B4313600020E2E7226813689B
:1009100004218B4313602268136806310B43136074
:10092000EDE70220D5E710B52523C35C022B06D0E6
:100930000423C36320330022C254012010BD026887
:1009400013680E218B43136001680A6801239A43E0
:100950000A60416C1C220A40016C1C0094404C60EF
:100960002522835423330022C2540020E6E710B529
:100970002523C35C022B03D00423C363012010BDD5
:10098000026813680E218B43136001680A68012313
:100990009A430A60416C1C220A40016C1C0094407E
:1009A0004C602522835423330022C254836B002BD6
:1009B00002D098470020E2E70020E0E770B5036C22
:1009C000196804682568426C1C23134004229A406D
:1009D000114214D06A0712D523689B0603D42368FA
:1009E000042293432360436C1C221A40016C0423AD
:1009F00093404B60036B002B00D0984770BD0222E0
:100A00009A4011421AD0AA0718D523689B0606D42B
:100A100023680A22934323602523093AC254436C76
:100A20001C221A40016C022393404B6024230022B5
:100A3000C254C36A002BE1D09847DFE708229A40EE
:100A40001142DBD02D07D9D523680E2293432360B2
:100A5000436C0E321A40016C01231C0094404C6020
:100A6000C3632522835423330022C254436B002BDB
:100A7000C4D09847C2E70000F0B5002356E086686E
:100A80005F000324BC40A643CC68BC403443846070
:100A9000446894434E683609012232409A4022430A
:100AA000426053E0DE080836B600375805321A4077
:100AB00092000F249440A7430C69944022003A43CB
:100AC000325056E0052600E00026A64034003C43A4
:100AD00002329200414E9451414A1768EA433E0067
:100AE000AE434C68E40301D53E002E433C4C2660E7
:100AF00067683E0016404C68A40301D53E002E43B3
:100B0000374C6660A7683E0016404C68E40201D589
:100B10003E002E43324CA660E66832404C68A40288
:100B200001D52A0032432E4CE26001330C682200CA
:100B3000DA4052D001229A40250015401442F4D0E8
:100B40004E6803243440013C012C98D94C680322A0
:100B50002240032A08D0C4685E000322B2409443B6
:100B60008A68B2402243C2604C6803222240022AB3
:100B700098D004685E0003221700B740BC434F685A
:100B80003A40B240224302604C68C02292021442B2
:100B9000CBD0144C626B0126324362639A08941CDA
:100BA000A4000E4EA75903241C40A4000F26A64003
:100BB000B743A026F605B04286D00B4EB04208D00F
:100BC0000A4EB04207D00A4EB04200D17AE706265C
:100BD0007BE7012679E7022677E7F0BD00000140B8
:100BE00000040140001002400004005000080050C2
:100BF000001C005010B5264BDA680C231340082B5C
:100C000042D00C2B11D0042B09D0214B5A68520B27
:100C100007231340013380200002984010BD1C4B75
:100C20001B68DB0632D51B48F8E7910C0F230B40FD
:100C30001949C85C920D03231A40541C144BDB68FD
:100C4000DB0309D5154A0023002101F08BFB2200AC
:100C50000023FFF7C1FAE1E70D4B1B68DB0609D55E
:100C60000C4A0023002101F07DFB22000023FFF746
:100C7000B3FAD3E70A4A0023002101F073FB2200F4
:100C80000023FFF7A9FAC9E70448C7E70448C5E706
:100C90000010024000093D008425000800127A007F
:100CA0000024F400F0B583B0041E00D165E2C54B0A
:100CB000DA680C251540DE6880235B021E4003685D
:100CC000DB0736D5082D2CD00C2D28D06368802268
:100CD0005202934255D0A022D202934258D0B94B2F
:100CE0001A68B9490A401A601A68802149020A4004
:100CF0000192019A1A68B5490A401A606368002B8C
:100D000052D0FFF70BFD0700AE4B1B689B0310D4BE
:100D1000FFF704FDC01B6428F6D903202EE2002E45
:100D2000D4D0A84B1B689B0303D56368002B00D16C
:100D300026E223689B076DD5E3689A0605D5A1488E
:100D4000026820210A4302608B43042D3CD00C2D05
:100D500038D0002B00D1B0E09A490A6809208243BC
:100D600013430B60FFF7DAFC0600964B1B685B072A
:100D700000D599E0FFF7D2FC801B0228F5D90320AB
:100D8000FCE1904A116880235B020B431360B5E7D6
:100D90008C4B19688022D2020A431A60196880229B
:100DA00052020A431A60A9E7FFF7B8FC0700854B17
:100DB0001B689B03BDD5FFF7B1FCC01B6428F6D9A7
:100DC0000320DBE1002EC4D17E4A1268520702D50F
:100DD000002B00D1D6E17B4E72687D490A40216923
:100DE00009020A437260326809218A43134333605F
:100DF000FFF700FFF26812090F231340754AD35C16
:100E0000D840754B1860754B1868FFF73FFC0028F9
:100E100000D0B3E12368DB062DD5002D60D1694BEE
:100E20001B689B0503D5A369002B00D1ACE1654A83
:100E300053686B490B40216A0B43536053681B0294
:100E40001B0AE16909060B435360216A490B013112
:100E500080231B028B40D16809090F220A405D499B
:100E60008A5CD3405C4A13605C4B1868FFF70EFC49
:100E7000002800D082E123681B077DD56369002B21
:100E800067D0504A136D01210B431365FFF746FCF1
:100E900006004C4B1B6D9B076ED4FFF73FFC801B7D
:100EA0000228F6D9032069E146494B68484A1340B5
:100EB0002269120213434B60ACE7424A13680121D6
:100EC0008B431360FFF72AFC06003E4B1B685B0751
:100ED000A0D5FFF723FC801B0228F6D903204DE1A3
:100EE000A369002B22D0374A116880235B000B4393
:100EF0001360FFF713FC0600324B1B689B0506D4FA
:100F0000FFF70CFC801B0228F6D9032036E12D4A9E
:100F1000536833490B40216A0B43536053681B02EB
:100F20001B0AE16909060B435360A4E7254A1368CD
:100F30002C490B401360FFF7F1FB0600214B1B68A7
:100F40009B0598D5FFF7EAFB801B0228F6D9032002
:100F500014E11C4A136D01218B431365FFF7DEFB7F
:100F60000600184B1B6D9B0706D5FFF7D7FB801BB0
:100F70000228F6D9032001E123685B0700D48EE044
:100F8000104B9B6BDB001BD40E4A916B80235B05DF
:100F90000B4393630126144B1B68DB0528D5A3681C
:100FA00080225200934237D0002B4DD1054B1A6D51
:100FB0000C490A401A651A6D0C490A401A6531E05D
:100FC0000026E8E700100240FFFFFEFFFFFFFBFFE7
:100FD000FFE0FFFF98250008000000200800002027
:100FE000FF1FFFFFFFFEFFFF00700040FFFBFFFF42
:100FF0006B4A116880235B000B431360FFF78EFB85
:101000000700674B1B68DB05C9D4FFF787FBC01BD4
:101010006428F6D90320B1E0624A116D80235B0099
:101020000B431365A368002B28D0FFF777FB07005D
:101030005C4B1B6D9B0530D4FFF770FBC01B5A4BFC
:101040009842F5D9032099E0A022D200934209D01A
:10105000544B1A6D55490A401A651A6D54490A4095
:101060001A65DFE74F4B196D013AFF3A0A431A65DB
:10107000196D802252000A431A65D3E7FFF74EFB31
:101080000700484B1B6D9B0507D5FFF747FBC01BAF
:10109000454B9842F5D9032070E0012E1AD0636ABF
:1010A000002B00D172E00C2D4FD0022B18D03D4AFE
:1010B000136840490B401360FFF730FB0400394BC5
:1010C0001B689B013FD5FFF729FB001B0228F6D9BF
:1010D000032053E0334A936B37490B409363DEE7B9
:1010E000304A136833490B401360FFF717FB0500C4
:1010F0002C4B1B689B0106D5FFF710FB401B0228F9
:10110000F6D903203AE02749CB682C4A1340A26A5B
:10111000E06A0243206B02431343CB600A688023DA
:101120005B0413430B60FFF7F9FA04001D4B1B68C7
:101130009B0106D4FFF7F2FA001B0228F6D9032020
:101140001CE000201AE0002018E0012B20D0154BF5
:10115000DA6880235B021340A16A8B421AD1F02324
:101160009B031340E16A8B4216D1C0231B041A4033
:10117000236B9A4212D1002000E0012003B0F0BDA1
:101180000120FBE70120F9E70120F7E70020F5E760
:101190000120F3E70120F1E70120EFE70120EDE76F
:1011A000007000400010024088130000FFFEFFFFA7
:1011B000FFFBFFFFFFFFFFFEFFFFFFEFFFFF02FF51
:1011C00070B505000C00002800D1D1E06A4B1A6808
:1011D000012313408B4219D32B689B0706D5674A1E
:1011E000D368F0218B43A9680B43D3602B68DB07DE
:1011F0007BD56B68022B20D0032B40D0012B44D031
:101200005E4A126892051DD4012099E05A4A13687B
:1012100001218B4323431360FFF780FA0600564BEE
:101220001A6801231340A342D6D0FFF777FA801B38
:10123000534A9042F3D9032082E0504A1268920345
:1012400000D497E04D49CA68032082431343CB6022
:10125000FFF764FA06006B68022B1CD0032B28D022
:10126000012B34D0454BDB680C221A423DD0FFF7EE
:1012700055FA801B424B9842F4D9032060E03F4A64
:1012800012689201DED401205AE03C4A12685207EB
:10129000D8D4012054E0394BDA680C231340082BD2
:1012A00023D0FFF73BFA801B354A9042F3D9032045
:1012B00046E0324BDA680C2313400C2B15D0FFF7B5
:1012C0002DFA801B2E4B9842F3D9032038E02B4B8C
:1012D000DA680C231340042B07D0FFF71FFA801B9A
:1012E000274B9842F3D903202AE0234B1A680123A5
:1012F0001340A34225D82B685B0706D51F4AD36845
:1013000020490B40E9680B43D3602B681B0707D5C6
:101310001A49CB681C4A13402A69D2001343CB6098
:10132000FFF768FC154BDA6812090F231340174AC0
:10133000D35CD840164B1860164B1868FFF7A6F917
:1013400070BD0D4A136801218B4323431360FFF7DF
:10135000E5F90600084B1A6801231340A342CAD0DE
:10136000FFF7DCF9801B064B9842F3D90320E7E72F
:101370000120E5E70120E3E70020024000100240E1
:1013800088130000FFF8FFFFFFC7FFFF9825000844
:101390000000002008000020014B18687047C0467C
:1013A0000000002010B5FFF7F7FF044BDA68120ABF
:1013B00007231340024AD35CD84010BD00100240FE
:1013C0009025000810B5FFF7E7FF044BDA68D20A52
:1013D00007231340024AD35CD84010BD00100240DE
:1013E0009025000870B5040003689B064BD5594B47
:1013F0009B6BDB0071D4574A916B80235B050B43D9
:1014000093630126544B1B68DB0568D5514B1B6861
:1014100062685340C02189030B4205D0C0239B0260
:101420001100194099426ED04A4B196DC0239B029E
:1014300008001840194215D01A40824212D0236881
:101440009B060FD5434B1A6D444911401D6D8020FA
:10145000000328431865186D414D2840186519652B
:10146000D20556D46368C0229202190011409142FD
:101470005ED038490B6D6268C02080020240134381
:101480000B65012E5ED023689B0706D5314AD36CCD
:101490000C218B43A1680B43D36423685B0706D5FB
:1014A0002C4AD36C2F490B40E1680B43D36423686B
:1014B0001B0706D5274AD36C2B490B4021690B43E8
:1014C000D36423681B0643D5224AD36C27490B40BB
:1014D00061690B43D36400203BE0002692E71E4A7B
:1014E000116880235B000B431360FFF717F90500B9
:1014F000194B1B68DB0589D4FFF710F9401B6428E2
:10150000F6D9032025E0134B1B689B038CD50120E3
:101510001FE0FFF703F905000E4B1B6D9B05A1D4DF
:10152000FFF7FCF8401B124B9842F5D9032010E05E
:1015300008490A680F480240C02080030340134353
:101540000B6096E70A008B6B0B490B4093639AE79D
:10155000002070BD0010024000700040FFFFFCFF43
:10156000FFFFF7FFFFF3FFFFFFCFFFFFFFFFF3FFDB
:1015700088130000FFFFCFFFFFFFFFEF70B5041ED1
:1015800059D0436A002B07D142680533FF339A4292
:1015900005D00023C36102E00023036143610023FF
:1015A000A3625133E35C002B3ED051220221A154AF
:1015B000206803684025AB430360636882204000D5
:1015C0000340A06884252D0228400343E06880255D
:1015D0002D0128400343206901400B43616901202C
:1015E00001400B43A1698025AD0029400B43E5690B
:1015F000382129400B43256A802129400B43A16AE9
:101600008025AD01294025680B432B60618B0423A5
:101610000B40656A1021294025680B436B6000234D
:101620006365A054002070BD50330022E2542000B6
:10163000FEF74EFFB9E70120F5E710B5EFF3108193
:10164000012383F3108802681368C024A343136046
:1016500081F310882023836710BD000010B5EFF3DD
:10166000108C012282F3108801680B68124C234011
:101670000B608CF31088EFF3108C82F310880168F4
:101680008B6893438B608CF31088036E012B05D01D
:101690002023C36700230366436610BDEFF3108168
:1016A00083F31088026813683234FF34A343136055
:1016B00081F31088ECE7C046DFFEFFFF10B50400A1
:1016C0001300826F202A54D1002954D0002B54D00B
:1016D000806880225201904230D07422A25C012A9C
:1016E0004DD074220120A054E164243AA352023266
:1016F000A3522E320021A1505F3AA267E26E002A67
:1017000023D02049D162E26E1F491163E26E1F4966
:101710005163E26E00219163E16C22682832E06E31
:10172000FFF7C6F8002810D080231022E2500C3BAF
:101730000022E254543BA36701201BE02269002AE7
:10174000CBD1CA07C9D5012014E0236840221A6210
:1017500074230022E254EFF31081733B83F310886B
:101760002268936880200343936081F310880020EF
:1017700000E0022010BD0120FCE70120FAE7022072
:10178000F8E7C04693170008071800081718000864
:10179000704710B50300806A1B681B689B061AD44B
:1017A00052230022C252EFF3108C013282F31088D0
:1017B00001688B688024A3438B608CF31088EFF35F
:1017C000108182F31088026813684020034313607D
:1017D00081F3108810BDFFF7DBFFFBE710B5EFF3D7
:1017E0001081012383F31088026813684024A34307
:1017F000136081F310882023836700238366FFF73B
:10180000C7FF10BD704710B5806AFFF7FBFF10BD22
:1018100070477047704770B5846AA26FE56F2368A0
:101820009B681B0601D5212A0ED023689B685B06A6
:1018300001D5222D0FD08022A35810210B43A35095
:101840002000FFF7E7FF70BD52230022E252200084
:10185000FFF7F3FEE9E75A230022E2522000FFF7E8
:10186000FDFEE8E710B5806A00235A228352083A49
:101870008352FFF7CFFF10BD70B504000268D36933
:1018800011689068A94D2B4209D19D060FD58D0690
:101890000DD5636E002B1DD0200098471AE001255E
:1018A0002E000640054216D1A14D294213D1256EC6
:1018B000012D00D192E0DD0202D5400200D522E1E7
:1018C0001A0602D50A0600D524E15B0602D54906B0
:1018D00000D526E170BDD80707D5C80505D5012577
:1018E0001562802022582A4322509A0709D5002EDB
:1018F00007D02268022010627E30225804252A4335
:1019000022505A0709D5002E07D022680420106201
:101910007C30225802252A4322501A070AD58A060B
:1019200001D4002E06D02268082515628020225896
:101930002A4322501A050AD54A0108D52268802078
:10194000000110628020225820252A432250802244
:10195000A258002ABED09B0606D5890604D5636E20
:10196000002B01D0200098478023E25823689B6811
:101970005B0602D42823134229D02000FFF76EFE15
:1019800023689B685B061ED5EFF31081012383F368
:1019900010882268936840208343936081F3108805
:1019A000236F002B0BD0634A9A63206FFEF7DFFF93
:1019B000002800D18EE7206F836B98478AE72000CC
:1019C000FFF728FF86E72000FFF724FF82E72000CB
:1019D000FFF720FF80230022E2507BE7DD0600D4E2
:1019E00069E7CD0600D466E71023136223689B687D
:1019F0005B0650D5226F13685B689BB2002B00D149
:101A000068E75821615A994200D863E75A21635226
:101A100013681B689B0609D55823E15A0233E35A21
:101A2000C91A89B2200000F045FC53E7EFF310809B
:101A3000012383F3108821680A683F4D2A400A6019
:101A400080F31088EFF3108083F3108821688A6890
:101A50009A438A6080F31088EFF3108083F3108834
:101A600021688A684235FF35AA438A6080F310886E
:101A70002022E26700222266EFF3108183F31088B0
:101A80002268136810208343136081F31088206F4D
:101A9000FEF749FFC0E75823E35A5A22A15A591AC0
:101AA00089B2A35A9BB2002B00D113E7002900D1C1
:101AB00010E7EFF31085012383F310882068026894
:101AC0001E4E3240026085F31088EFF3108583F3D9
:101AD0001088206882689A43826085F310882022EB
:101AE000E267002222666266EFF3108083F31088BB
:101AF000226813681025AB43136080F31088200020
:101B000000F0D8FBE6E680235B031362200000F0C0
:101B100045FBDFE6A36E002B00D1DBE620009847F3
:101B2000D8E62000FFF75AFED4E6C0460F080000B2
:101B30002001000465180008FFFEFFFFDFFEFFFF25
:101B400010B5806A036E012B02D0FFF762FE10BD54
:101B50005733C15A490800F0ADFBF8E770B50300F0
:101B6000806A1B681B689B0628D45A230022C25235
:101B7000EFF31084593B83F3108801680A681B4D0A
:101B80002A400A6084F31088EFF3108483F31088EE
:101B900001688A689A438A6084F31088EFF31081A1
:101BA00083F31088026893684024A343936081F311
:101BB00010882023C367036E012B05D0036E012B11
:101BC0000ED0FFF725FE70BDEFF3108183F3108870
:101BD00002681368303CA343136081F31088EDE77B
:101BE0005733C15A00F066FBEDE7C046FFFEFFFF2A
:101BF000D0B5040001688368026913434269134346
:101C0000C26913430A688648024013430B60226886
:101C1000536884490B40E1680B435360A169226813
:101C2000814B9A4201D0236A194393687F4803404D
:101C30000B43936022687E4B9A4212D07A4B9A42B1
:101C400020D0102378498A4242D0E06980221202D3
:101C500090427AD0082B00D9DCE09B00754AD3581B
:101C60009F46754BD96C0C230B40082B22D005D80E
:101C7000002B21D0042BE5D01023E3E70C2B1DD142
:101C8000043BDFE76C4BDB6CC02109010B4080217A
:101C900009018B4214D007D8002B13D08021C90032
:101CA0008B4211D10423CDE7C02109018B420DD114
:101CB0000823C7E70223C5E70023C3E71023C1E7D2
:101CC0000223BFE70023BDE71023BBE71023B9E7DA
:101CD000042B35D00BD8002B2CD0022B05D1564B22
:101CE0001B68DB062FD4554805E0012071E0082B66
:101CF0001ED180200002626853009B18834200D9E5
:101D00007CE01303834200D27AE0070E06025008FB
:101D10000021801979410023FEF75EFA484BC21872
:101D2000484B9A4200D96DE02368D860002050E00B
:101D300001204EE0FFF736FB0028DCD1002048E010
:101D4000FEF758FFF8E74048D5E7082B5CD89B0022
:101D50003E4AD3589F46FFF725FB002856D0400047
:101D600061684B08C018FEF7ABF983B20004000CA1
:101D700001001039364A91424AD80F2293431A0083
:101D800040080723034013432268D360002020E06B
:101D9000FFF718FBE1E7284B1B68DB0604D4274854
:101DA000DDE7FEF727FFD8E72748D8E7FFF7FAFA7D
:101DB000002831D061684B081818FEF781F900043B
:101DC000000C0200103A224B9A4227D82368D860B0
:101DD000002000236366A366D0BDFFF7F3FAE7E7B0
:101DE000154B1B68DB0607D41448E3E7FEF702FF38
:101DF000DEE780200002DDE71348DBE70120E8E7AB
:101E00000120E6E70120E4E70120E2E70020E0E727
:101E10000120DEE70120DCE70020DAE70120D8E737
:101E2000F369FFEFFFCFFFFF00480040FFF4FFFF23
:101E300000440040A8250008001002400024F400DF
:101E400000FDFFFFFFFC0F0000093D00CC2500084E
:101E5000EFFF0000436ADB0706D5026853682C4990
:101E60000B40816A0B435360436A9B0706D50268A7
:101E7000536828490B40C16A0B435360436A5B07B0
:101E800006D50268536824490B40016B0B4353602D
:101E9000436A1B0706D50268536820490B40416B13
:101EA0000B435360436ADB0606D5026893681C49FE
:101EB0000B40816B0B439360436A9B0606D5026817
:101EC000936818490B40C16B0B439360436A5B06F0
:101ED0000BD50268536814490B40016C0B435360E7
:101EE000026C80235B039A420AD0436A1B0606D524
:101EF000026853680D490B40816C0B435360704777
:101F0000026853680A490B40416C0B435360ECE78D
:101F1000FFFFFDFFFFFFFEFFFFFFFBFFFF7FFFFF58
:101F2000FFEFFFFFFFDFFFFFFFFFEFFFFFFFF7FF09
:101F3000FFFF9FFFF8B5CE46474680B506000D006F
:101F400017009946089B98463368DC692C40641B4F
:101F500063425C41BC4253D143460133F4D0FEF7A7
:101F6000DDFB4B46C01A40452CD84346002B29D0F8
:101F7000326813685B07E7D5D3691B05E4D5802376
:101F80001B011362EFF31080012282F31088316885
:101F90000B681E4C23400B6080F31088EFF3108019
:101FA00082F3108831688B6893438B6080F31088CC
:101FB0002023B367F3677F32B35054330022F254C7
:101FC00003201EE0EFF31080012282F310883168B5
:101FD0000B680E4C23400B6080F31088EFF31080E9
:101FE00082F3108831688B6893438B6080F310888C
:101FF0002023B367F36754330022F254032000E038
:102000000020C0BCB946B046F8BDC0465FFEFFFF29
:1020100030B583B0040080230022C250FEF77EFB5F
:10202000050023681B681B070DD423681B685B072A
:1020300016D42023A367E367002323667422A354E6
:10204000002003B030BD80210C4B00930300002220
:1020500089032000FFF76EFF0028E6D00320F0E799
:102060008021064B00932B000022C9032000FFF7BC
:1020700061FF0028DDD00320E3E7C046FFFFFF013A
:1020800010B5041E2ED0836F002B21D02423A3670C
:102090002268136801218B4313602000FFF7A8FD1D
:1020A000012814D0636A002B18D1226853680E49A6
:1020B0000B405360226893682A218B439360226807
:1020C000136829390B4313602000FFF7A1FF10BDEF
:1020D00074330022C254FEF771FAD7E72000FFF7ED
:1020E000B9FEE2E70120F2E7FFB7FFFF70B5040099
:1020F00013004165582283522832002181505E3AF4
:10210000C267026F002A12D02149D162026F2149B1
:102110001163026F20495163026F002191630168CE
:102120002431426D006FFEF7C3FB002826D17423D3
:102130000022E254EFF31080733B83F31088216890
:102140000D680132FF322A430A6080F31088EFF3F2
:10215000108083F3108821688A681A438A6080F3AC
:102160001088EFF3108183F3108822689368402071
:102170000343936081F31088002070BD80231022F8
:10218000E2500C3B0022E254543BE3670120F4E7A9
:102190005D1B0008411B000817180008704710B5A8
:1021A0000400C36F202B30D1002930D0002A30D05A
:1021B000806880235B01984211D07423E35C012B7B
:1021C00029D001237420235423662000FFF78EFFBB
:1021D00000281BD1236E012B08D0012016E02369B3
:1021E000002BEAD1CB07E8D501200FE023681021AE
:1021F0001962EFF3108C012383F3108822681368AF
:102200000B4313608CF3108800E0022010BD012006
:10221000FCE70120FAE70220F8E7000010B50449C6
:1022200000230B70043103480422FFF7B8FF10BDF0
:10223000980100201001002070B515001C00084B0B
:1022400018725972002A04D006492200280000F0B2
:1022500083F9A21C04490548FFF730FA70BDC04657
:1022600098010020A2010020A00100201001002000
:1022700000B583B00A4B1B78002B09D008490B79B5
:1022800001AA137049795170002B03D0FFF7C6FFE4
:1022900003B000BD002200210020FFF7CDFFF5E7CD
:1022A0009801002010B5FFF7B9FF10BD10B5FFF77A
:1022B000DFFF10BD0268084B9A4200D07047074A02
:1022C00053885B189BB25380022BF7D11300002276
:1022D0005A8001321A70F1E7004400409801002052
:1022E0001348854613480168090E134A914205D1E7
:1022F00012481349016013481349016013481449F7
:10230000144A002302E0D458C4500433C4188C4249
:10231000F9D3114A114C002301E013600432A242A8
:10232000FBD3FEF72BF9FDF7F5FFFEF799F8FEE773
:1023300000200020040000001F00000034100240B4
:10234000010000000000014000000000000000202B
:102350000C000020002600080C00002004020020D1
:10236000FEE70000F0B5CE469946030C9C461304E8
:1023700047461B0C1D000E0061460404240C80B56A
:102380000700100C4B436543414360432C0CC018BD
:1023900024188C46A34203D980235B029846C44488
:1023A000494679435643230C2D042D0C8919634467
:1023B00024046019C918C0BCB946B046F0BDC04677
:1023C000F0B557464E464546DE46E0B504000D00E2
:1023D0009246994683B08B4230D82DD0494650461C
:1023E000FDF71AFF290006002000FDF715FF331A3C
:1023F0009846203B34D49B4653465A469340424627
:102400001F00534693401E00AF423BD8AF4200D15D
:1024100079E05B46A41BBD41002B00DA76E0002288
:1024200000230092019301235A4693400193012314
:1024300042469340009329E08242CFD900220023F4
:10244000009201930C9B002B01D01C605D600098F2
:10245000019903B0F0BCBB46B246A946A046F0BD08
:1024600042469B4620239B1A5246DA4041461300BF
:102470004A468A40170042461F43534693401E0077
:10248000AF42C3D900220023009201934346002BA0
:10249000D8D0FB0772081A4346467B080EE0AB42D1
:1024A00001D1A2420CD8A41A9D41012024196D41EA
:1024B0000021013E24184D41002E06D0AB42EED93A
:1024C000013E24196D41002EF8D1009801995B4618
:1024D00000196941002B24DB2B005A464446D340A7
:1024E0002A00E2401C005B461500002B2ADB260078
:1024F0009E40330026004746BE403200801A994174
:10250000009001919EE7A342BCD882E74246202377
:1025100000219B1A0022009101920122DA400192CF
:1025200085E7424620239B1A2A0046469A4023000C
:10253000F340444613432A00E2401C005B4615006A
:10254000002BD4DA42462F002023260097409B1A06
:10255000DE403B003343CDE7002310B59A4200D163
:1025600010BDCC5CC4540133F8E70000F8B5C04698
:10257000F8BC08BC9E467047F8B5C046F8BC08BC1D
:042580009E467047BC
:10258400030406080C1018203000000000000000AE
:102594000102030400000000000000000102030423
:1025A40006070809AC1D0008DA1D0008E01D000834
:1025B400141E0008EC1D0008141E0008141E000858
:1025C400141E0008F21D0008561D0008901D000886
:1025D400961D0008081E0008A21D0008081E000819
:0C25E400081E0008081E00085E1D00080C
:0825F000D0FDFF7F0100000097
:0425F800E1020008F4
:0425FC00B50200081C
:0C260000000020000100000004000000A9
:04000005080022E1EC
:00000001FF
